{"abi":[{"type":"constructor","inputs":[],"stateMutability":"nonpayable"},{"type":"function","name":"GRID_SIZE","inputs":[],"outputs":[{"name":"","type":"uint8","internalType":"uint8"}],"stateMutability":"view"},{"type":"function","name":"OWNER_FEE_PERCENT","inputs":[],"outputs":[{"name":"","type":"uint8","internalType":"uint8"}],"stateMutability":"view"},{"type":"function","name":"ROUND_DURATION","inputs":[],"outputs":[{"name":"","type":"uint256","internalType":"uint256"}],"stateMutability":"view"},{"type":"function","name":"VOTE_FEE","inputs":[],"outputs":[{"name":"","type":"uint256","internalType":"uint256"}],"stateMutability":"view"},{"type":"function","name":"claimPrize","inputs":[{"name":"roundId","type":"uint256","internalType":"uint256"}],"outputs":[],"stateMutability":"nonpayable"},{"type":"function","name":"getCurrentRound","inputs":[],"outputs":[{"name":"","type":"uint256","internalType":"uint256"}],"stateMutability":"view"},{"type":"function","name":"getRoundCharacterPosition","inputs":[{"name":"roundId","type":"uint256","internalType":"uint256"}],"outputs":[{"name":"","type":"uint8","internalType":"uint8"},{"name":"","type":"uint8","internalType":"uint8"}],"stateMutability":"view"},{"type":"function","name":"getRoundEndTime","inputs":[{"name":"roundId","type":"uint256","internalType":"uint256"}],"outputs":[{"name":"","type":"uint256","internalType":"uint256"}],"stateMutability":"pure"},{"type":"function","name":"getRoundPool","inputs":[{"name":"roundId","type":"uint256","internalType":"uint256"}],"outputs":[{"name":"","type":"uint256","internalType":"uint256"}],"stateMutability":"view"},{"type":"function","name":"getRoundStartTime","inputs":[{"name":"roundId","type":"uint256","internalType":"uint256"}],"outputs":[{"name":"","type":"uint256","internalType":"uint256"}],"stateMutability":"pure"},{"type":"function","name":"getRoundTreasurePosition","inputs":[{"name":"roundId","type":"uint256","internalType":"uint256"}],"outputs":[{"name":"","type":"uint8","internalType":"uint8"},{"name":"","type":"uint8","internalType":"uint8"}],"stateMutability":"view"},{"type":"function","name":"getRoundVoteCount","inputs":[{"name":"roundId","type":"uint256","internalType":"uint256"}],"outputs":[{"name":"","type":"uint256","internalType":"uint256"}],"stateMutability":"view"},{"type":"function","name":"getRoundVotes","inputs":[{"name":"roundId","type":"uint256","internalType":"uint256"}],"outputs":[{"name":"","type":"tuple[]","internalType":"struct VoteGame.Vote[]","components":[{"name":"voter","type":"address","internalType":"address"},{"name":"direction","type":"uint8","internalType":"enum VoteGame.Direction"},{"name":"timestamp","type":"uint256","internalType":"uint256"}]}],"stateMutability":"view"},{"type":"function","name":"getRoundWinner","inputs":[{"name":"roundId","type":"uint256","internalType":"uint256"}],"outputs":[{"name":"","type":"address","internalType":"address"}],"stateMutability":"view"},{"type":"function","name":"isRoundActive","inputs":[{"name":"roundId","type":"uint256","internalType":"uint256"}],"outputs":[{"name":"","type":"bool","internalType":"bool"}],"stateMutability":"view"},{"type":"function","name":"isRoundFinished","inputs":[{"name":"roundId","type":"uint256","internalType":"uint256"}],"outputs":[{"name":"","type":"bool","internalType":"bool"}],"stateMutability":"view"},{"type":"function","name":"owner","inputs":[],"outputs":[{"name":"","type":"address","internalType":"address"}],"stateMutability":"view"},{"type":"function","name":"ownerBalance","inputs":[],"outputs":[{"name":"","type":"uint256","internalType":"uint256"}],"stateMutability":"view"},{"type":"function","name":"roundInitialized","inputs":[{"name":"","type":"uint256","internalType":"uint256"}],"outputs":[{"name":"","type":"bool","internalType":"bool"}],"stateMutability":"view"},{"type":"function","name":"rounds","inputs":[{"name":"","type":"uint256","internalType":"uint256"}],"outputs":[{"name":"characterX","type":"uint8","internalType":"uint8"},{"name":"characterY","type":"uint8","internalType":"uint8"},{"name":"treasureX","type":"uint8","internalType":"uint8"},{"name":"treasureY","type":"uint8","internalType":"uint8"},{"name":"winner","type":"address","internalType":"address"},{"name":"pool","type":"uint256","internalType":"uint256"},{"name":"prizeClaimed","type":"bool","internalType":"bool"}],"stateMutability":"view"},{"type":"function","name":"vote","inputs":[{"name":"direction","type":"uint8","internalType":"enum VoteGame.Direction"}],"outputs":[],"stateMutability":"payable"},{"type":"function","name":"withdrawOwnerFees","inputs":[],"outputs":[],"stateMutability":"nonpayable"}],"bytecode":{"object":"0x60a0604052348015600e575f5ffd5b503373ffffffffffffffffffffffffffffffffffffffff1660808173ffffffffffffffffffffffffffffffffffffffff1681525050608051611cbb6100695f395f81816105920152818161066f01526108a10152611cbb5ff3fe608060405260043610610134575f3560e01c806393f885a3116100aa578063b19f5fb11161006e578063b19f5fb11461046c578063b3f98adc146104a9578063bedcf003146104c5578063c3f25d36146104ef578063d70981541461052c578063ddc6ac231461055457610134565b806393f885a3146103645780639669cdbb146103a057806397ac4a25146103dc578063a32bf59714610418578063a8a3221e1461044257610134565b80636641ea08116100fc5780636641ea081461023e5780637ef4aa7b146102685780637f04bf5d146102925780637fc4eda8146102ce5780638c65c81f146102f85780638da5cb5b1461033a57610134565b80630a9ef34c1461013857806310602a811461014e57806312b19a131461018a5780631aab1099146101c657806354a8fb4714610202575b5f5ffd5b348015610143575f5ffd5b5061014c610590565b005b348015610159575f5ffd5b50610174600480360381019061016f91906113aa565b610738565b60405161018191906113e4565b60405180910390f35b348015610195575f5ffd5b506101b060048036038101906101ab91906113aa565b610755565b6040516101bd91906113e4565b60405180910390f35b3480156101d1575f5ffd5b506101ec60048036038101906101e791906113aa565b610777565b6040516101f991906113e4565b60405180910390f35b34801561020d575f5ffd5b50610228600480360381019061022391906113aa565b610797565b604051610235919061143c565b60405180910390f35b348015610249575f5ffd5b506102526107d3565b60405161025f91906113e4565b60405180910390f35b348015610273575f5ffd5b5061027c6107d9565b60405161028991906113e4565b60405180910390f35b34801561029d575f5ffd5b506102b860048036038101906102b391906113aa565b6107e4565b6040516102c5919061146f565b60405180910390f35b3480156102d9575f5ffd5b506102e2610801565b6040516102ef91906114a3565b60405180910390f35b348015610303575f5ffd5b5061031e600480360381019061031991906113aa565b610806565b60405161033197969594939291906114bc565b60405180910390f35b348015610345575f5ffd5b5061034e61089f565b60405161035b919061143c565b60405180910390f35b34801561036f575f5ffd5b5061038a600480360381019061038591906113aa565b6108c3565b604051610397919061146f565b60405180910390f35b3480156103ab575f5ffd5b506103c660048036038101906103c191906113aa565b6108d5565b6040516103d391906116a2565b60405180910390f35b3480156103e7575f5ffd5b5061040260048036038101906103fd91906113aa565b6109dd565b60405161040f919061146f565b60405180910390f35b348015610423575f5ffd5b5061042c6109ef565b60405161043991906113e4565b60405180910390f35b34801561044d575f5ffd5b50610456610a03565b60405161046391906114a3565b60405180910390f35b348015610477575f5ffd5b50610492600480360381019061048d91906113aa565b610a08565b6040516104a09291906116c2565b60405180910390f35b6104c360048036038101906104be919061170c565b610a55565b005b3480156104d0575f5ffd5b506104d9610d1d565b6040516104e691906113e4565b60405180910390f35b3480156104fa575f5ffd5b50610515600480360381019061051091906113aa565b610d22565b6040516105239291906116c2565b60405180910390f35b348015610537575f5ffd5b50610552600480360381019061054d91906113aa565b610d6e565b005b34801561055f575f5ffd5b5061057a600480360381019061057591906113aa565b610f79565b60405161058791906113e4565b60405180910390f35b7f000000000000000000000000000000000000000000000000000000000000000073ffffffffffffffffffffffffffffffffffffffff163373ffffffffffffffffffffffffffffffffffffffff161461061e576040517f08c379a000000000000000000000000000000000000000000000000000000000815260040161061590611791565b60405180910390fd5b5f5f5411610661576040517f08c379a0000000000000000000000000000000000000000000000000000000008152600401610658906117f9565b60405180910390fd5b5f5f5490505f5f819055505f7f000000000000000000000000000000000000000000000000000000000000000073ffffffffffffffffffffffffffffffffffffffff16826040516106b190611844565b5f6040518083038185875af1925050503d805f81146106eb576040519150601f19603f3d011682016040523d82523d5f602084013e6106f0565b606091505b5050905080610734576040517f08c379a000000000000000000000000000000000000000000000000000000000815260040161072b906118a2565b60405180910390fd5b5050565b5f60015f8381526020019081526020015f20600101549050919050565b5f61025860018361076691906118ed565b6107709190611920565b9050919050565b5f60015f8381526020019081526020015f20600301805490509050919050565b5f60015f8381526020019081526020015f205f0160049054906101000a900473ffffffffffffffffffffffffffffffffffffffff169050919050565b61025881565b66038d7ea4c6800081565b6002602052805f5260405f205f915054906101000a900460ff1681565b600b81565b6001602052805f5260405f205f91509050805f015f9054906101000a900460ff1690805f0160019054906101000a900460ff1690805f0160029054906101000a900460ff1690805f0160039054906101000a900460ff1690805f0160049054906101000a900473ffffffffffffffffffffffffffffffffffffffff1690806001015490806002015f9054906101000a900460ff16905087565b7f000000000000000000000000000000000000000000000000000000000000000081565b5f816108cd6109ef565b119050919050565b606060015f8381526020019081526020015f20600301805480602002602001604051908101604052809291908181526020015f905b828210156109d2578382905f5260205f2090600202016040518060600160405290815f82015f9054906101000a900473ffffffffffffffffffffffffffffffffffffffff1673ffffffffffffffffffffffffffffffffffffffff1673ffffffffffffffffffffffffffffffffffffffff1681526020015f820160149054906101000a900460ff1660038111156109a3576109a2611561565b5b60038111156109b5576109b4611561565b5b81526020016001820154815250508152602001906001019061090a565b505050509050919050565b5f816109e76109ef565b149050919050565b5f610258426109fe919061198e565b905090565b600a81565b5f5f60015f8481526020019081526020015f205f0160029054906101000a900460ff1660015f8581526020019081526020015f205f0160039054906101000a900460ff1691509150915091565b66038d7ea4c680003414610a9e576040517f08c379a0000000000000000000000000000000000000000000000000000000008152600401610a9590611a08565b60405180910390fd5b5f610aa76109ef565b9050610ab281610f8f565b5f60015f8381526020019081526020015f2090505f6064600a60ff1634610ad99190611920565b610ae3919061198e565b90505f8134610af29190611a26565b9050815f5f828254610b0491906118ed565b9250508190555080836001015f828254610b1e91906118ed565b925050819055508260030160405180606001604052803373ffffffffffffffffffffffffffffffffffffffff168152602001876003811115610b6357610b62611561565b5b815260200142815250908060018154018082558091505060019003905f5260205f2090600202015f909190919091505f820151815f015f6101000a81548173ffffffffffffffffffffffffffffffffffffffff021916908373ffffffffffffffffffffffffffffffffffffffff1602179055506020820151815f0160146101000a81548160ff02191690836003811115610c0057610bff611561565b5b0217905550604082015181600101555050610c1b8386611136565b825f0160029054906101000a900460ff1660ff16835f015f9054906101000a900460ff1660ff16148015610c745750825f0160039054906101000a900460ff1660ff16835f0160019054906101000a900460ff1660ff16145b8015610cce57505f73ffffffffffffffffffffffffffffffffffffffff16835f0160049054906101000a900473ffffffffffffffffffffffffffffffffffffffff1673ffffffffffffffffffffffffffffffffffffffff16145b15610d165733835f0160046101000a81548173ffffffffffffffffffffffffffffffffffffffff021916908373ffffffffffffffffffffffffffffffffffffffff1602179055505b5050505050565b5f5481565b5f5f60015f8481526020019081526020015f205f015f9054906101000a900460ff1660015f8581526020019081526020015f205f0160019054906101000a900460ff1691509150915091565b5f60015f8381526020019081526020015f209050610d8b826108c3565b610dca576040517f08c379a0000000000000000000000000000000000000000000000000000000008152600401610dc190611aa3565b60405180910390fd5b3373ffffffffffffffffffffffffffffffffffffffff16815f0160049054906101000a900473ffffffffffffffffffffffffffffffffffffffff1673ffffffffffffffffffffffffffffffffffffffff1614610e5b576040517f08c379a0000000000000000000000000000000000000000000000000000000008152600401610e5290611b0b565b60405180910390fd5b806002015f9054906101000a900460ff1615610eac576040517f08c379a0000000000000000000000000000000000000000000000000000000008152600401610ea390611b73565b60405180910390fd5b6001816002015f6101000a81548160ff0219169083151502179055505f3373ffffffffffffffffffffffffffffffffffffffff168260010154604051610ef190611844565b5f6040518083038185875af1925050503d805f8114610f2b576040519150601f19603f3d011682016040523d82523d5f602084013e610f30565b606091505b5050905080610f74576040517f08c379a0000000000000000000000000000000000000000000000000000000008152600401610f6b906118a2565b60405180910390fd5b505050565b5f61025882610f889190611920565b9050919050565b60025f8281526020019081526020015f205f9054906101000a900460ff16611133575f60015f8381526020019081526020015f2090506005815f015f6101000a81548160ff021916908360ff1602179055506005815f0160016101000a81548160ff021916908360ff1602179055505f42448460405160200161101493929190611bb1565b604051602081830303815290604052805190602001205f1c9050600b60ff168161103e9190611bed565b825f0160026101000a81548160ff021916908360ff160217905550600b60ff16600b60ff168261106e919061198e565b6110789190611bed565b825f0160036101000a81548160ff021916908360ff1602179055506005825f0160029054906101000a900460ff1660ff161480156110c957506005825f0160039054906101000a900460ff1660ff16145b15611107575f825f0160026101000a81548160ff021916908360ff1602179055505f825f0160036101000a81548160ff021916908360ff1602179055505b600160025f8581526020019081526020015f205f6101000a81548160ff02191690831515021790555050505b50565b5f600381111561114957611148611561565b5b81600381111561115c5761115b611561565b5b14801561117b57505f825f0160019054906101000a900460ff1660ff16115b156111bd576001825f0160018282829054906101000a900460ff166111a09190611c1d565b92506101000a81548160ff021916908360ff16021790555061136f565b600160038111156111d1576111d0611561565b5b8160038111156111e4576111e3611561565b5b14801561121357506001600b6111fa9190611c1d565b60ff16825f0160019054906101000a900460ff1660ff16105b15611255576001825f0160018282829054906101000a900460ff166112389190611c51565b92506101000a81548160ff021916908360ff16021790555061136e565b6002600381111561126957611268611561565b5b81600381111561127c5761127b611561565b5b14801561129a57505f825f015f9054906101000a900460ff1660ff16115b156112db576001825f015f8282829054906101000a900460ff166112be9190611c1d565b92506101000a81548160ff021916908360ff16021790555061136d565b6003808111156112ee576112ed611561565b5b81600381111561130157611300611561565b5b14801561132f57506001600b6113179190611c1d565b60ff16825f015f9054906101000a900460ff1660ff16105b1561136c576001825f015f8282829054906101000a900460ff166113539190611c51565b92506101000a81548160ff021916908360ff1602179055505b5b5b5b5050565b5f5ffd5b5f819050919050565b61138981611377565b8114611393575f5ffd5b50565b5f813590506113a481611380565b92915050565b5f602082840312156113bf576113be611373565b5b5f6113cc84828501611396565b91505092915050565b6113de81611377565b82525050565b5f6020820190506113f75f8301846113d5565b92915050565b5f73ffffffffffffffffffffffffffffffffffffffff82169050919050565b5f611426826113fd565b9050919050565b6114368161141c565b82525050565b5f60208201905061144f5f83018461142d565b92915050565b5f8115159050919050565b61146981611455565b82525050565b5f6020820190506114825f830184611460565b92915050565b5f60ff82169050919050565b61149d81611488565b82525050565b5f6020820190506114b65f830184611494565b92915050565b5f60e0820190506114cf5f83018a611494565b6114dc6020830189611494565b6114e96040830188611494565b6114f66060830187611494565b611503608083018661142d565b61151060a08301856113d5565b61151d60c0830184611460565b98975050505050505050565b5f81519050919050565b5f82825260208201905092915050565b5f819050602082019050919050565b61155b8161141c565b82525050565b7f4e487b71000000000000000000000000000000000000000000000000000000005f52602160045260245ffd5b6004811061159f5761159e611561565b5b50565b5f8190506115af8261158e565b919050565b5f6115be826115a2565b9050919050565b6115ce816115b4565b82525050565b6115dd81611377565b82525050565b606082015f8201516115f75f850182611552565b50602082015161160a60208501826115c5565b50604082015161161d60408501826115d4565b50505050565b5f61162e83836115e3565b60608301905092915050565b5f602082019050919050565b5f61165082611529565b61165a8185611533565b935061166583611543565b805f5b8381101561169557815161167c8882611623565b97506116878361163a565b925050600181019050611668565b5085935050505092915050565b5f6020820190508181035f8301526116ba8184611646565b905092915050565b5f6040820190506116d55f830185611494565b6116e26020830184611494565b9392505050565b600481106116f5575f5ffd5b50565b5f81359050611706816116e9565b92915050565b5f6020828403121561172157611720611373565b5b5f61172e848285016116f8565b91505092915050565b5f82825260208201905092915050565b7f4f6e6c79206f776e6572000000000000000000000000000000000000000000005f82015250565b5f61177b600a83611737565b915061178682611747565b602082019050919050565b5f6020820190508181035f8301526117a88161176f565b9050919050565b7f4e6f206665657320746f207769746864726177000000000000000000000000005f82015250565b5f6117e3601383611737565b91506117ee826117af565b602082019050919050565b5f6020820190508181035f830152611810816117d7565b9050919050565b5f81905092915050565b50565b5f61182f5f83611817565b915061183a82611821565b5f82019050919050565b5f61184e82611824565b9150819050919050565b7f5472616e73666572206661696c656400000000000000000000000000000000005f82015250565b5f61188c600f83611737565b915061189782611858565b602082019050919050565b5f6020820190508181035f8301526118b981611880565b9050919050565b7f4e487b71000000000000000000000000000000000000000000000000000000005f52601160045260245ffd5b5f6118f782611377565b915061190283611377565b925082820190508082111561191a576119196118c0565b5b92915050565b5f61192a82611377565b915061193583611377565b925082820261194381611377565b9150828204841483151761195a576119596118c0565b5b5092915050565b7f4e487b71000000000000000000000000000000000000000000000000000000005f52601260045260245ffd5b5f61199882611377565b91506119a383611377565b9250826119b3576119b2611961565b5b828204905092915050565b7f4d7573742073656e642065786163746c7920302e3030312045544800000000005f82015250565b5f6119f2601b83611737565b91506119fd826119be565b602082019050919050565b5f6020820190508181035f830152611a1f816119e6565b9050919050565b5f611a3082611377565b9150611a3b83611377565b9250828203905081811115611a5357611a526118c0565b5b92915050565b7f526f756e64206e6f742066696e697368656420796574000000000000000000005f82015250565b5f611a8d601683611737565b9150611a9882611a59565b602082019050919050565b5f6020820190508181035f830152611aba81611a81565b9050919050565b7f596f7520617265206e6f74207468652077696e6e6572000000000000000000005f82015250565b5f611af5601683611737565b9150611b0082611ac1565b602082019050919050565b5f6020820190508181035f830152611b2281611ae9565b9050919050565b7f5072697a6520616c726561647920636c61696d656400000000000000000000005f82015250565b5f611b5d601583611737565b9150611b6882611b29565b602082019050919050565b5f6020820190508181035f830152611b8a81611b51565b9050919050565b5f819050919050565b611bab611ba682611377565b611b91565b82525050565b5f611bbc8286611b9a565b602082019150611bcc8285611b9a565b602082019150611bdc8284611b9a565b602082019150819050949350505050565b5f611bf782611377565b9150611c0283611377565b925082611c1257611c11611961565b5b828206905092915050565b5f611c2782611488565b9150611c3283611488565b9250828203905060ff811115611c4b57611c4a6118c0565b5b92915050565b5f611c5b82611488565b9150611c6683611488565b9250828201905060ff811115611c7f57611c7e6118c0565b5b9291505056fea26469706673582212204788344a92066fea991df10501ef39bb1a4a7aa6c0018b5d4d348d149c59ca9664736f6c63430008210033","linkReferences":{}},"methodIdentifiers":{"GRID_SIZE()":"7fc4eda8","OWNER_FEE_PERCENT()":"a8a3221e","ROUND_DURATION()":"6641ea08","VOTE_FEE()":"7ef4aa7b","claimPrize(uint256)":"d7098154","getCurrentRound()":"a32bf597","getRoundCharacterPosition(uint256)":"c3f25d36","getRoundEndTime(uint256)":"12b19a13","getRoundPool(uint256)":"10602a81","getRoundStartTime(uint256)":"ddc6ac23","getRoundTreasurePosition(uint256)":"b19f5fb1","getRoundVoteCount(uint256)":"1aab1099","getRoundVotes(uint256)":"9669cdbb","getRoundWinner(uint256)":"54a8fb47","isRoundActive(uint256)":"97ac4a25","isRoundFinished(uint256)":"93f885a3","owner()":"8da5cb5b","ownerBalance()":"bedcf003","roundInitialized(uint256)":"7f04bf5d","rounds(uint256)":"8c65c81f","vote(uint8)":"b3f98adc","withdrawOwnerFees()":"0a9ef34c"},"id":21}